{
  "_format": "hh-sol-artifact-1",
  "contractName": "MyContract",
  "sourceName": "contracts/MyContract.sol",
  "abi": [
    {
      "inputs": [
        {
          "internalType": "string",
          "name": "_message",
          "type": "string"
        }
      ],
      "stateMutability": "nonpayable",
      "type": "constructor"
    },
    {
      "anonymous": false,
      "inputs": [
        {
          "indexed": false,
          "internalType": "string",
          "name": "newMessage",
          "type": "string"
        }
      ],
      "name": "MessageChanged",
      "type": "event"
    },
    {
      "inputs": [],
      "name": "getMessage",
      "outputs": [
        {
          "internalType": "string",
          "name": "",
          "type": "string"
        }
      ],
      "stateMutability": "view",
      "type": "function"
    },
    {
      "inputs": [],
      "name": "message",
      "outputs": [
        {
          "internalType": "string",
          "name": "",
          "type": "string"
        }
      ],
      "stateMutability": "view",
      "type": "function"
    },
    {
      "inputs": [],
      "name": "owner",
      "outputs": [
        {
          "internalType": "address",
          "name": "",
          "type": "address"
        }
      ],
      "stateMutability": "view",
      "type": "function"
    },
    {
      "inputs": [
        {
          "internalType": "string",
          "name": "_message",
          "type": "string"
        }
      ],
      "name": "setMessage",
      "outputs": [],
      "stateMutability": "nonpayable",
      "type": "function"
    }
  ],
  "bytecode": "0x608060405234801561001057600080fd5b5060405161079f38038061079f83398101604081905261002f9161006a565b600061003b82826101bf565b5050600180546001600160a01b0319163317905561027d565b634e487b7160e01b600052604160045260246000fd5b60006020828403121561007c57600080fd5b81516001600160401b0381111561009257600080fd5b8201601f810184136100a357600080fd5b80516001600160401b038111156100bc576100bc610054565b604051601f8201601f19908116603f011681016001600160401b03811182821017156100ea576100ea610054565b60405281815282820160200186101561010257600080fd5b60005b8281101561012157602081850181015183830182015201610105565b50600091810160200191909152949350505050565b600181811c9082168061014a57607f821691505b60208210810361016a57634e487b7160e01b600052602260045260246000fd5b50919050565b601f8211156101ba57806000526020600020601f840160051c810160208510156101975750805b601f840160051c820191505b818110156101b757600081556001016101a3565b50505b505050565b81516001600160401b038111156101d8576101d8610054565b6101ec816101e68454610136565b84610170565b6020601f82116001811461022057600083156102085750848201515b600019600385901b1c1916600184901b1784556101b7565b600084815260208120601f198516915b828110156102505787850151825560209485019460019092019101610230565b508482101561026e5786840151600019600387901b60f8161c191681555b50505050600190811b01905550565b6105138061028c6000396000f3fe608060405234801561001057600080fd5b506004361061004c5760003560e01c8063368b8772146100515780638da5cb5b14610066578063ce6d41de14610096578063e21f37ce146100ab575b600080fd5b61006461005f36600461028e565b6100b3565b005b600154610079906001600160a01b031681565b6040516001600160a01b0390911681526020015b60405180910390f35b61009e610158565b60405161008d9190610347565b61009e6101ea565b6001546001600160a01b031633146101115760405162461bcd60e51b815260206004820152601d60248201527f4f6e6c79206f776e65722063616e206368616e6765206d657373616765000000604482015260640160405180910390fd5b600061011d828261041e565b507fbb4847942d98bb5bb249692c72ce235605e41502e705831e609875320ef2cac78160405161014d9190610347565b60405180910390a150565b60606000805461016790610395565b80601f016020809104026020016040519081016040528092919081815260200182805461019390610395565b80156101e05780601f106101b5576101008083540402835291602001916101e0565b820191906000526020600020905b8154815290600101906020018083116101c357829003601f168201915b5050505050905090565b600080546101f790610395565b80601f016020809104026020016040519081016040528092919081815260200182805461022390610395565b80156102705780601f1061024557610100808354040283529160200191610270565b820191906000526020600020905b81548152906001019060200180831161025357829003601f168201915b505050505081565b634e487b7160e01b600052604160045260246000fd5b6000602082840312156102a057600080fd5b813567ffffffffffffffff8111156102b757600080fd5b8201601f810184136102c857600080fd5b803567ffffffffffffffff8111156102e2576102e2610278565b604051601f8201601f19908116603f0116810167ffffffffffffffff8111828210171561031157610311610278565b60405281815282820160200186101561032957600080fd5b81602084016020830137600091810160200191909152949350505050565b602081526000825180602084015260005b818110156103755760208186018101516040868401015201610358565b506000604082850101526040601f19601f83011684010191505092915050565b600181811c908216806103a957607f821691505b6020821081036103c957634e487b7160e01b600052602260045260246000fd5b50919050565b601f82111561041957806000526020600020601f840160051c810160208510156103f65750805b601f840160051c820191505b818110156104165760008155600101610402565b50505b505050565b815167ffffffffffffffff81111561043857610438610278565b61044c816104468454610395565b846103cf565b6020601f82116001811461048057600083156104685750848201515b600019600385901b1c1916600184901b178455610416565b600084815260208120601f198516915b828110156104b05787850151825560209485019460019092019101610490565b50848210156104ce5786840151600019600387901b60f8161c191681555b50505050600190811b0190555056fea26469706673582212200ef9efffa24324664c1b7ccfd2529f7b5bad1ddcd97d4c78b967c412219d0bff64736f6c634300081e0033",
  "linkReferences": {},
  "deployedLinkReferences": {}
}